{
  "contractName": "Pool",
  "abi": [
    {
      "inputs": [],
      "stateMutability": "nonpayable",
      "type": "constructor"
    },
    {
      "anonymous": false,
      "inputs": [
        {
          "indexed": false,
          "internalType": "address",
          "name": "sender",
          "type": "address"
        },
        {
          "indexed": false,
          "internalType": "uint256",
          "name": "amount",
          "type": "uint256"
        }
      ],
      "name": "Deposit",
      "type": "event"
    },
    {
      "anonymous": false,
      "inputs": [
        {
          "indexed": false,
          "internalType": "uint256",
          "name": "amount",
          "type": "uint256"
        }
      ],
      "name": "NewReward",
      "type": "event"
    },
    {
      "anonymous": false,
      "inputs": [
        {
          "indexed": true,
          "internalType": "bytes32",
          "name": "role",
          "type": "bytes32"
        },
        {
          "indexed": true,
          "internalType": "bytes32",
          "name": "previousAdminRole",
          "type": "bytes32"
        },
        {
          "indexed": true,
          "internalType": "bytes32",
          "name": "newAdminRole",
          "type": "bytes32"
        }
      ],
      "name": "RoleAdminChanged",
      "type": "event"
    },
    {
      "anonymous": false,
      "inputs": [
        {
          "indexed": true,
          "internalType": "bytes32",
          "name": "role",
          "type": "bytes32"
        },
        {
          "indexed": true,
          "internalType": "address",
          "name": "account",
          "type": "address"
        },
        {
          "indexed": true,
          "internalType": "address",
          "name": "sender",
          "type": "address"
        }
      ],
      "name": "RoleGranted",
      "type": "event"
    },
    {
      "anonymous": false,
      "inputs": [
        {
          "indexed": true,
          "internalType": "bytes32",
          "name": "role",
          "type": "bytes32"
        },
        {
          "indexed": true,
          "internalType": "address",
          "name": "account",
          "type": "address"
        },
        {
          "indexed": true,
          "internalType": "address",
          "name": "sender",
          "type": "address"
        }
      ],
      "name": "RoleRevoked",
      "type": "event"
    },
    {
      "anonymous": false,
      "inputs": [
        {
          "indexed": false,
          "internalType": "address",
          "name": "sender",
          "type": "address"
        },
        {
          "indexed": false,
          "internalType": "uint256",
          "name": "amount",
          "type": "uint256"
        }
      ],
      "name": "Withdrawal",
      "type": "event"
    },
    {
      "inputs": [],
      "name": "DEFAULT_ADMIN_ROLE",
      "outputs": [
        {
          "internalType": "bytes32",
          "name": "",
          "type": "bytes32"
        }
      ],
      "stateMutability": "view",
      "type": "function",
      "constant": true
    },
    {
      "inputs": [],
      "name": "TEAM",
      "outputs": [
        {
          "internalType": "bytes32",
          "name": "",
          "type": "bytes32"
        }
      ],
      "stateMutability": "view",
      "type": "function",
      "constant": true
    },
    {
      "inputs": [
        {
          "internalType": "address",
          "name": "",
          "type": "address"
        }
      ],
      "name": "balanceOf",
      "outputs": [
        {
          "internalType": "uint256",
          "name": "",
          "type": "uint256"
        }
      ],
      "stateMutability": "view",
      "type": "function",
      "constant": true
    },
    {
      "inputs": [],
      "name": "contractBalance",
      "outputs": [
        {
          "internalType": "uint256",
          "name": "",
          "type": "uint256"
        }
      ],
      "stateMutability": "view",
      "type": "function",
      "constant": true
    },
    {
      "inputs": [
        {
          "internalType": "address",
          "name": "",
          "type": "address"
        },
        {
          "internalType": "uint256",
          "name": "",
          "type": "uint256"
        }
      ],
      "name": "deposits",
      "outputs": [
        {
          "internalType": "uint256",
          "name": "value",
          "type": "uint256"
        },
        {
          "internalType": "uint256",
          "name": "time",
          "type": "uint256"
        }
      ],
      "stateMutability": "view",
      "type": "function",
      "constant": true
    },
    {
      "inputs": [
        {
          "internalType": "bytes32",
          "name": "role",
          "type": "bytes32"
        }
      ],
      "name": "getRoleAdmin",
      "outputs": [
        {
          "internalType": "bytes32",
          "name": "",
          "type": "bytes32"
        }
      ],
      "stateMutability": "view",
      "type": "function",
      "constant": true
    },
    {
      "inputs": [
        {
          "internalType": "bytes32",
          "name": "role",
          "type": "bytes32"
        },
        {
          "internalType": "address",
          "name": "account",
          "type": "address"
        }
      ],
      "name": "grantRole",
      "outputs": [],
      "stateMutability": "nonpayable",
      "type": "function"
    },
    {
      "inputs": [
        {
          "internalType": "bytes32",
          "name": "role",
          "type": "bytes32"
        },
        {
          "internalType": "address",
          "name": "account",
          "type": "address"
        }
      ],
      "name": "hasRole",
      "outputs": [
        {
          "internalType": "bool",
          "name": "",
          "type": "bool"
        }
      ],
      "stateMutability": "view",
      "type": "function",
      "constant": true
    },
    {
      "inputs": [],
      "name": "poolBalance",
      "outputs": [
        {
          "internalType": "uint256",
          "name": "",
          "type": "uint256"
        }
      ],
      "stateMutability": "view",
      "type": "function",
      "constant": true
    },
    {
      "inputs": [
        {
          "internalType": "bytes32",
          "name": "role",
          "type": "bytes32"
        },
        {
          "internalType": "address",
          "name": "account",
          "type": "address"
        }
      ],
      "name": "renounceRole",
      "outputs": [],
      "stateMutability": "nonpayable",
      "type": "function"
    },
    {
      "inputs": [
        {
          "internalType": "bytes32",
          "name": "role",
          "type": "bytes32"
        },
        {
          "internalType": "address",
          "name": "account",
          "type": "address"
        }
      ],
      "name": "revokeRole",
      "outputs": [],
      "stateMutability": "nonpayable",
      "type": "function"
    },
    {
      "inputs": [
        {
          "internalType": "uint256",
          "name": "",
          "type": "uint256"
        }
      ],
      "name": "rewards",
      "outputs": [
        {
          "internalType": "uint256",
          "name": "value",
          "type": "uint256"
        },
        {
          "internalType": "uint256",
          "name": "time",
          "type": "uint256"
        },
        {
          "internalType": "uint256",
          "name": "totalPooled",
          "type": "uint256"
        }
      ],
      "stateMutability": "view",
      "type": "function",
      "constant": true
    },
    {
      "inputs": [
        {
          "internalType": "bytes4",
          "name": "interfaceId",
          "type": "bytes4"
        }
      ],
      "name": "supportsInterface",
      "outputs": [
        {
          "internalType": "bool",
          "name": "",
          "type": "bool"
        }
      ],
      "stateMutability": "view",
      "type": "function",
      "constant": true
    },
    {
      "inputs": [
        {
          "internalType": "uint256",
          "name": "",
          "type": "uint256"
        }
      ],
      "name": "team",
      "outputs": [
        {
          "internalType": "address",
          "name": "addr",
          "type": "address"
        },
        {
          "internalType": "bytes32",
          "name": "role",
          "type": "bytes32"
        }
      ],
      "stateMutability": "view",
      "type": "function",
      "constant": true
    },
    {
      "stateMutability": "payable",
      "type": "receive",
      "payable": true
    },
    {
      "inputs": [],
      "name": "depositReward",
      "outputs": [],
      "stateMutability": "payable",
      "type": "function",
      "payable": true
    },
    {
      "inputs": [],
      "name": "withdraw",
      "outputs": [],
      "stateMutability": "nonpayable",
      "type": "function"
    },
    {
      "inputs": [],
      "name": "getTeam",
      "outputs": [
        {
          "components": [
            {
              "internalType": "address",
              "name": "addr",
              "type": "address"
            },
            {
              "internalType": "bytes32",
              "name": "role",
              "type": "bytes32"
            }
          ],
          "internalType": "struct Pool.Member[]",
          "name": "",
          "type": "tuple[]"
        }
      ],
      "stateMutability": "view",
      "type": "function",
      "constant": true
    },
    {
      "inputs": [
        {
          "internalType": "address",
          "name": "_member",
          "type": "address"
        }
      ],
      "name": "addToTeam",
      "outputs": [],
      "stateMutability": "nonpayable",
      "type": "function"
    },
    {
      "inputs": [
        {
          "internalType": "address",
          "name": "_member",
          "type": "address"
        },
        {
          "internalType": "uint256",
          "name": "index",
          "type": "uint256"
        }
      ],
      "name": "removeFromTeam",
      "outputs": [],
      "stateMutability": "nonpayable",
      "type": "function"
    }
  ],
  "bytecode": "0x60806040523480156200001157600080fd5b50620000276000801b336200011160201b60201c565b620000597f9b82d2f38fbdf13006bfa741767f793d917e063392737837b580c1c2b1e0bab3336200011160201b60201c565b600060405180604001604052803373ffffffffffffffffffffffffffffffffffffffff1681526020016000801b8152509050600681908060018154018082558091505060019003906000526020600020906002020160009091909190915060008201518160000160006101000a81548173ffffffffffffffffffffffffffffffffffffffff021916908373ffffffffffffffffffffffffffffffffffffffff160217905550602082015181600101555050506200028a565b6200012382826200012760201b60201c565b5050565b6200013982826200021860201b60201c565b6200021457600160008084815260200190815260200160002060000160008373ffffffffffffffffffffffffffffffffffffffff1673ffffffffffffffffffffffffffffffffffffffff16815260200190815260200160002060006101000a81548160ff021916908315150217905550620001b96200028260201b60201c565b73ffffffffffffffffffffffffffffffffffffffff168173ffffffffffffffffffffffffffffffffffffffff16837f2f8788117e7eff1d82e926ec794901d17c78024a50270940304540a733656f0d60405160405180910390a45b5050565b600080600084815260200190815260200160002060000160008373ffffffffffffffffffffffffffffffffffffffff1673ffffffffffffffffffffffffffffffffffffffff16815260200190815260200160002060009054906101000a900460ff16905092915050565b600033905090565b612356806200029a6000396000f3fe6080604052600436106101185760003560e01c806370a08231116100a0578063a217fddf11610064578063a217fddf1461053d578063cecdc6aa14610568578063d547741f14610593578063d6d68177146105bc578063f301af42146105fa576102c0565b806370a08231146104425780638b7afe2e1461047f5780638bce6edd146104aa57806391d14854146104d557806396365d4414610512576102c0565b806336568abe116100e757806336568abe146103a65780633ccfd60b146103cf57806343696f18146103e65780635ec2dc8d1461040f57806368182ccd14610419576102c0565b806301ffc9a7146102c5578063197ebd5314610302578063248a9ca3146103405780632f2ff15d1461037d576102c0565b366102c05760003411610160576040517f08c379a0000000000000000000000000000000000000000000000000000000008152600401610157906117f7565b60405180910390fd5b600042905060006040518060400160405280348152602001838152509050600360003373ffffffffffffffffffffffffffffffffffffffff1673ffffffffffffffffffffffffffffffffffffffff1681526020019081526020016000208190806001815401808255809150506001900390600052602060002090600202016000909190919091506000820151816000015560208201518160010155505034600460003373ffffffffffffffffffffffffffffffffffffffff1673ffffffffffffffffffffffffffffffffffffffff168152602001908152602001600020600082825461024c9190611850565b9250508190555034600260008282546102659190611850565b92505081905550346001600082825461027e9190611850565b925050819055507fe1fffcc4923d04b559f4d29a8bfc6cda04eb5b0d3c460751c2402c5c5cc9109c33346040516102b69291906118f6565b60405180910390a1005b600080fd5b3480156102d157600080fd5b506102ec60048036038101906102e7919061197c565b610639565b6040516102f991906119c4565b60405180910390f35b34801561030e57600080fd5b5061032960048036038101906103249190611a0b565b6106b3565b604051610337929190611a51565b60405180910390f35b34801561034c57600080fd5b5061036760048036038101906103629190611aa6565b610707565b6040516103749190611ad3565b60405180910390f35b34801561038957600080fd5b506103a4600480360381019061039f9190611b1a565b610726565b005b3480156103b257600080fd5b506103cd60048036038101906103c89190611b1a565b61074f565b005b3480156103db57600080fd5b506103e46107d2565b005b3480156103f257600080fd5b5061040d60048036038101906104089190611b5a565b610c67565b005b610417610d63565b005b34801561042557600080fd5b50610440600480360381019061043b9190611b87565b610e9f565b005b34801561044e57600080fd5b5061046960048036038101906104649190611b5a565b611001565b6040516104769190611bc7565b60405180910390f35b34801561048b57600080fd5b50610494611019565b6040516104a19190611bc7565b60405180910390f35b3480156104b657600080fd5b506104bf61101f565b6040516104cc9190611cde565b60405180910390f35b3480156104e157600080fd5b506104fc60048036038101906104f79190611b1a565b6110de565b60405161050991906119c4565b60405180910390f35b34801561051e57600080fd5b50610527611148565b6040516105349190611bc7565b60405180910390f35b34801561054957600080fd5b5061055261114e565b60405161055f9190611ad3565b60405180910390f35b34801561057457600080fd5b5061057d611155565b60405161058a9190611ad3565b60405180910390f35b34801561059f57600080fd5b506105ba60048036038101906105b59190611b1a565b611179565b005b3480156105c857600080fd5b506105e360048036038101906105de9190611b87565b6111a2565b6040516105f1929190611d00565b60405180910390f35b34801561060657600080fd5b50610621600480360381019061061c9190611a0b565b6111e3565b60405161063093929190611d29565b60405180910390f35b60007f7965db0b000000000000000000000000000000000000000000000000000000007bffffffffffffffffffffffffffffffffffffffffffffffffffffffff1916827bffffffffffffffffffffffffffffffffffffffffffffffffffffffff191614806106ac57506106ab8261121d565b5b9050919050565b600681815481106106c357600080fd5b90600052602060002090600202016000915090508060000160009054906101000a900473ffffffffffffffffffffffffffffffffffffffff16908060010154905082565b6000806000838152602001908152602001600020600101549050919050565b61072f82610707565b6107408161073b611287565b61128f565b61074a838361132c565b505050565b610757611287565b73ffffffffffffffffffffffffffffffffffffffff168173ffffffffffffffffffffffffffffffffffffffff16146107c4576040517f08c379a00000000000000000000000000000000000000000000000000000000081526004016107bb90611dd2565b60405180910390fd5b6107ce828261140c565b5050565b6000600460003373ffffffffffffffffffffffffffffffffffffffff1673ffffffffffffffffffffffffffffffffffffffff1681526020019081526020016000205411610854576040517f08c379a000000000000000000000000000000000000000000000000000000000815260040161084b90611e3e565b60405180910390fd5b6000600460003373ffffffffffffffffffffffffffffffffffffffff1673ffffffffffffffffffffffffffffffffffffffff16815260200190815260200160002054905060005b600360003373ffffffffffffffffffffffffffffffffffffffff1673ffffffffffffffffffffffffffffffffffffffff16815260200190815260200160002080549050811015610a7c5760005b600580549050811015610a68576005818154811061090957610908611e5e565b5b906000526020600020906003020160010154600360003373ffffffffffffffffffffffffffffffffffffffff1673ffffffffffffffffffffffffffffffffffffffff168152602001908152602001600020838154811061096c5761096b611e5e565b5b9060005260206000209060020201600101541015610a55576005818154811061099857610997611e5e565b5b906000526020600020906003020160020154600582815481106109be576109bd611e5e565b5b906000526020600020906003020160000154600360003373ffffffffffffffffffffffffffffffffffffffff1673ffffffffffffffffffffffffffffffffffffffff1681526020019081526020016000208481548110610a2157610a20611e5e565b5b906000526020600020906002020160000154610a3d9190611e8d565b610a479190611f16565b83610a529190611850565b92505b8080610a6090611f47565b9150506108e8565b508080610a7490611f47565b91505061089b565b508060026000828254610a8f9190611f8f565b92505081905550600460003373ffffffffffffffffffffffffffffffffffffffff1673ffffffffffffffffffffffffffffffffffffffff1681526020019081526020016000205460016000828254610ae79190611f8f565b925050819055506000600460003373ffffffffffffffffffffffffffffffffffffffff1673ffffffffffffffffffffffffffffffffffffffff16815260200190815260200160002081905550600360003373ffffffffffffffffffffffffffffffffffffffff1673ffffffffffffffffffffffffffffffffffffffff1681526020019081526020016000206000610b7e9190611729565b60003373ffffffffffffffffffffffffffffffffffffffff1682604051610ba490611ff4565b60006040518083038185875af1925050503d8060008114610be1576040519150601f19603f3d011682016040523d82523d6000602084013e610be6565b606091505b5050905080610c2a576040517f08c379a0000000000000000000000000000000000000000000000000000000008152600401610c2190612055565b60405180910390fd5b7f7fcf532c15f0a6db0bd6d0e038bea71d30d808c7d98cb3bf7268a95bf5081b653383604051610c5b9291906118f6565b60405180910390a15050565b610c917f9b82d2f38fbdf13006bfa741767f793d917e063392737837b580c1c2b1e0bab382610726565b600060405180604001604052808373ffffffffffffffffffffffffffffffffffffffff1681526020017f9b82d2f38fbdf13006bfa741767f793d917e063392737837b580c1c2b1e0bab38152509050600681908060018154018082558091505060019003906000526020600020906002020160009091909190915060008201518160000160006101000a81548173ffffffffffffffffffffffffffffffffffffffff021916908373ffffffffffffffffffffffffffffffffffffffff1602179055506020820151816001015550505050565b7f9b82d2f38fbdf13006bfa741767f793d917e063392737837b580c1c2b1e0bab3610d9581610d90611287565b61128f565b60003411610dd8576040517f08c379a0000000000000000000000000000000000000000000000000000000008152600401610dcf906117f7565b60405180910390fd5b6000429050600060405180606001604052803481526020018381526020016001548152509050600581908060018154018082558091505060019003906000526020600020906003020160009091909190915060008201518160000155602082015181600101556040820151816002015550503460026000828254610e5c9190611850565b925050819055507fa4fda205b298198f8e2513573448542da0f39bbdff6d63026dcf8aea1167f9b534604051610e929190611bc7565b60405180910390a1505050565b6006805490508110610eb057600080fd5b610eda7f9b82d2f38fbdf13006bfa741767f793d917e063392737837b580c1c2b1e0bab383611179565b60066001600680549050610eee9190611f8f565b81548110610eff57610efe611e5e565b5b906000526020600020906002020160068281548110610f2157610f20611e5e565b5b90600052602060002090600202016000820160009054906101000a900473ffffffffffffffffffffffffffffffffffffffff168160000160006101000a81548173ffffffffffffffffffffffffffffffffffffffff021916908373ffffffffffffffffffffffffffffffffffffffff160217905550600182015481600101559050506006805480610fb557610fb4612075565b5b6001900381819060005260206000209060020201600080820160006101000a81549073ffffffffffffffffffffffffffffffffffffffff02191690556001820160009055505090555050565b60046020528060005260406000206000915090505481565b60025481565b60606006805480602002602001604051908101604052809291908181526020016000905b828210156110d557838290600052602060002090600202016040518060400160405290816000820160009054906101000a900473ffffffffffffffffffffffffffffffffffffffff1673ffffffffffffffffffffffffffffffffffffffff1673ffffffffffffffffffffffffffffffffffffffff16815260200160018201548152505081526020019060010190611043565b50505050905090565b600080600084815260200190815260200160002060000160008373ffffffffffffffffffffffffffffffffffffffff1673ffffffffffffffffffffffffffffffffffffffff16815260200190815260200160002060009054906101000a900460ff16905092915050565b60015481565b6000801b81565b7f9b82d2f38fbdf13006bfa741767f793d917e063392737837b580c1c2b1e0bab381565b61118282610707565b6111938161118e611287565b61128f565b61119d838361140c565b505050565b600360205281600052604060002081815481106111be57600080fd5b9060005260206000209060020201600091509150508060000154908060010154905082565b600581815481106111f357600080fd5b90600052602060002090600302016000915090508060000154908060010154908060020154905083565b60007f01ffc9a7000000000000000000000000000000000000000000000000000000007bffffffffffffffffffffffffffffffffffffffffffffffffffffffff1916827bffffffffffffffffffffffffffffffffffffffffffffffffffffffff1916149050919050565b600033905090565b61129982826110de565b611328576112be8173ffffffffffffffffffffffffffffffffffffffff1660146114ed565b6112cc8360001c60206114ed565b6040516020016112dd9291906121b6565b6040516020818303038152906040526040517f08c379a000000000000000000000000000000000000000000000000000000000815260040161131f919061223a565b60405180910390fd5b5050565b61133682826110de565b61140857600160008084815260200190815260200160002060000160008373ffffffffffffffffffffffffffffffffffffffff1673ffffffffffffffffffffffffffffffffffffffff16815260200190815260200160002060006101000a81548160ff0219169083151502179055506113ad611287565b73ffffffffffffffffffffffffffffffffffffffff168173ffffffffffffffffffffffffffffffffffffffff16837f2f8788117e7eff1d82e926ec794901d17c78024a50270940304540a733656f0d60405160405180910390a45b5050565b61141682826110de565b156114e957600080600084815260200190815260200160002060000160008373ffffffffffffffffffffffffffffffffffffffff1673ffffffffffffffffffffffffffffffffffffffff16815260200190815260200160002060006101000a81548160ff02191690831515021790555061148e611287565b73ffffffffffffffffffffffffffffffffffffffff168173ffffffffffffffffffffffffffffffffffffffff16837ff6391f5c32d9c69d2a47ea670b442974b53935d1edc7fd64eb21e047a839171b60405160405180910390a45b5050565b6060600060028360026115009190611e8d565b61150a9190611850565b67ffffffffffffffff8111156115235761152261225c565b5b6040519080825280601f01601f1916602001820160405280156115555781602001600182028036833780820191505090505b5090507f30000000000000000000000000000000000000000000000000000000000000008160008151811061158d5761158c611e5e565b5b60200101907effffffffffffffffffffffffffffffffffffffffffffffffffffffffffffff1916908160001a9053507f7800000000000000000000000000000000000000000000000000000000000000816001815181106115f1576115f0611e5e565b5b60200101907effffffffffffffffffffffffffffffffffffffffffffffffffffffffffffff1916908160001a905350600060018460026116319190611e8d565b61163b9190611850565b90505b60018111156116db577f3031323334353637383961626364656600000000000000000000000000000000600f86166010811061167d5761167c611e5e565b5b1a60f81b82828151811061169457611693611e5e565b5b60200101907effffffffffffffffffffffffffffffffffffffffffffffffffffffffffffff1916908160001a905350600485901c9450806116d49061228b565b905061163e565b506000841461171f576040517f08c379a000000000000000000000000000000000000000000000000000000000815260040161171690612300565b60405180910390fd5b8091505092915050565b508054600082556002029060005260206000209081019061174a919061174d565b50565b5b808211156117705760008082016000905560018201600090555060020161174e565b5090565b600082825260208201905092915050565b7f596f75206e65656420746f206465706f736974206174206c6561737420736f6d60008201527f6520657468657200000000000000000000000000000000000000000000000000602082015250565b60006117e1602783611774565b91506117ec82611785565b604082019050919050565b60006020820190508181036000830152611810816117d4565b9050919050565b6000819050919050565b7f4e487b7100000000000000000000000000000000000000000000000000000000600052601160045260246000fd5b600061185b82611817565b915061186683611817565b9250827fffffffffffffffffffffffffffffffffffffffffffffffffffffffffffffffff0382111561189b5761189a611821565b5b828201905092915050565b600073ffffffffffffffffffffffffffffffffffffffff82169050919050565b60006118d1826118a6565b9050919050565b6118e1816118c6565b82525050565b6118f081611817565b82525050565b600060408201905061190b60008301856118d8565b61191860208301846118e7565b9392505050565b600080fd5b60007fffffffff0000000000000000000000000000000000000000000000000000000082169050919050565b61195981611924565b811461196457600080fd5b50565b60008135905061197681611950565b92915050565b6000602082840312156119925761199161191f565b5b60006119a084828501611967565b91505092915050565b60008115159050919050565b6119be816119a9565b82525050565b60006020820190506119d960008301846119b5565b92915050565b6119e881611817565b81146119f357600080fd5b50565b600081359050611a05816119df565b92915050565b600060208284031215611a2157611a2061191f565b5b6000611a2f848285016119f6565b91505092915050565b6000819050919050565b611a4b81611a38565b82525050565b6000604082019050611a6660008301856118d8565b611a736020830184611a42565b9392505050565b611a8381611a38565b8114611a8e57600080fd5b50565b600081359050611aa081611a7a565b92915050565b600060208284031215611abc57611abb61191f565b5b6000611aca84828501611a91565b91505092915050565b6000602082019050611ae86000830184611a42565b92915050565b611af7816118c6565b8114611b0257600080fd5b50565b600081359050611b1481611aee565b92915050565b60008060408385031215611b3157611b3061191f565b5b6000611b3f85828601611a91565b9250506020611b5085828601611b05565b9150509250929050565b600060208284031215611b7057611b6f61191f565b5b6000611b7e84828501611b05565b91505092915050565b60008060408385031215611b9e57611b9d61191f565b5b6000611bac85828601611b05565b9250506020611bbd858286016119f6565b9150509250929050565b6000602082019050611bdc60008301846118e7565b92915050565b600081519050919050565b600082825260208201905092915050565b6000819050602082019050919050565b611c17816118c6565b82525050565b611c2681611a38565b82525050565b604082016000820151611c426000850182611c0e565b506020820151611c556020850182611c1d565b50505050565b6000611c678383611c2c565b60408301905092915050565b6000602082019050919050565b6000611c8b82611be2565b611c958185611bed565b9350611ca083611bfe565b8060005b83811015611cd1578151611cb88882611c5b565b9750611cc383611c73565b925050600181019050611ca4565b5085935050505092915050565b60006020820190508181036000830152611cf88184611c80565b905092915050565b6000604082019050611d1560008301856118e7565b611d2260208301846118e7565b9392505050565b6000606082019050611d3e60008301866118e7565b611d4b60208301856118e7565b611d5860408301846118e7565b949350505050565b7f416363657373436f6e74726f6c3a2063616e206f6e6c792072656e6f756e636560008201527f20726f6c657320666f722073656c660000000000000000000000000000000000602082015250565b6000611dbc602f83611774565b9150611dc782611d60565b604082019050919050565b60006020820190508181036000830152611deb81611daf565b9050919050565b7f496e73756666696369656e742066756e64732e00000000000000000000000000600082015250565b6000611e28601383611774565b9150611e3382611df2565b602082019050919050565b60006020820190508181036000830152611e5781611e1b565b9050919050565b7f4e487b7100000000000000000000000000000000000000000000000000000000600052603260045260246000fd5b6000611e9882611817565b9150611ea383611817565b9250817fffffffffffffffffffffffffffffffffffffffffffffffffffffffffffffffff0483118215151615611edc57611edb611821565b5b828202905092915050565b7f4e487b7100000000000000000000000000000000000000000000000000000000600052601260045260246000fd5b6000611f2182611817565b9150611f2c83611817565b925082611f3c57611f3b611ee7565b5b828204905092915050565b6000611f5282611817565b91507fffffffffffffffffffffffffffffffffffffffffffffffffffffffffffffffff8203611f8457611f83611821565b5b600182019050919050565b6000611f9a82611817565b9150611fa583611817565b925082821015611fb857611fb7611821565b5b828203905092915050565b600081905092915050565b50565b6000611fde600083611fc3565b9150611fe982611fce565b600082019050919050565b6000611fff82611fd1565b9150819050919050565b7f4661696c656420746f2073656e64204574686572000000000000000000000000600082015250565b600061203f601483611774565b915061204a82612009565b602082019050919050565b6000602082019050818103600083015261206e81612032565b9050919050565b7f4e487b7100000000000000000000000000000000000000000000000000000000600052603160045260246000fd5b600081905092915050565b7f416363657373436f6e74726f6c3a206163636f756e7420000000000000000000600082015250565b60006120e56017836120a4565b91506120f0826120af565b601782019050919050565b600081519050919050565b60005b83811015612124578082015181840152602081019050612109565b83811115612133576000848401525b50505050565b6000612144826120fb565b61214e81856120a4565b935061215e818560208601612106565b80840191505092915050565b7f206973206d697373696e6720726f6c6520000000000000000000000000000000600082015250565b60006121a06011836120a4565b91506121ab8261216a565b601182019050919050565b60006121c1826120d8565b91506121cd8285612139565b91506121d882612193565b91506121e48284612139565b91508190509392505050565b6000601f19601f8301169050919050565b600061220c826120fb565b6122168185611774565b9350612226818560208601612106565b61222f816121f0565b840191505092915050565b600060208201905081810360008301526122548184612201565b905092915050565b7f4e487b7100000000000000000000000000000000000000000000000000000000600052604160045260246000fd5b600061229682611817565b9150600082036122a9576122a8611821565b5b600182039050919050565b7f537472696e67733a20686578206c656e67746820696e73756666696369656e74600082015250565b60006122ea602083611774565b91506122f5826122b4565b602082019050919050565b60006020820190508181036000830152612319816122dd565b905091905056fea2646970667358221220c21ed482d24a7ac3d29af6ef023eecaaf074c3ef31307050e70068f412ac967764736f6c634300080d0033",
  "immutableReferences": {},
  "source": "// SPDX-License-Identifier: MIT\r\npragma solidity ^0.8.0;\r\n\r\nimport \"@openzeppelin/contracts/access/AccessControl.sol\";\r\n\r\ncontract Pool is AccessControl {\r\n    bytes32 public constant TEAM = keccak256(\"TEAM\");\r\n    uint public poolBalance;\r\n    uint public contractBalance;\r\n    struct DepositObj {\r\n        uint value;\r\n        uint time;\r\n    }\r\n    struct RewardsObj {\r\n        uint value;\r\n        uint time;\r\n        uint totalPooled;\r\n    }\r\n    struct Member {\r\n        address addr;\r\n        bytes32 role;\r\n    }\r\n    mapping(address => DepositObj[]) public deposits;\r\n    mapping(address => uint) public balanceOf;\r\n    RewardsObj[] public rewards;\r\n    Member[] public team;\r\n\r\n    event Deposit(address sender, uint amount);\r\n    event Withdrawal(address sender, uint amount);\r\n    event NewReward(uint amount);\r\n\r\n    constructor () {\r\n        _setupRole(DEFAULT_ADMIN_ROLE, msg.sender);\r\n        _setupRole(TEAM, msg.sender);\r\n        Member memory newMember = Member(msg.sender, DEFAULT_ADMIN_ROLE);\r\n        team.push(newMember);\r\n    }\r\n\r\n    receive() external payable {\r\n        require(msg.value > 0, \"You need to deposit at least some ether\");\r\n        uint timeNow = block.timestamp;\r\n        DepositObj memory newDeposit = DepositObj(msg.value, timeNow);\r\n        deposits[msg.sender].push(newDeposit);\r\n        balanceOf[msg.sender] += msg.value;\r\n        contractBalance += msg.value;\r\n        poolBalance += msg.value;\r\n        emit Deposit(msg.sender, msg.value);\r\n    }\r\n\r\n    function depositReward() public payable onlyRole(TEAM) {\r\n        require(msg.value > 0, \"You need to deposit at least some ether\");\r\n        uint timeNow = block.timestamp;\r\n        RewardsObj memory newReward = RewardsObj(msg.value, timeNow, poolBalance);\r\n        rewards.push(newReward);\r\n        contractBalance += msg.value;\r\n        emit NewReward(msg.value);\r\n    }\r\n\r\n    function withdraw() public {\r\n        require(balanceOf[msg.sender] > 0, \"Insufficient funds.\");\r\n        uint amount = balanceOf[msg.sender];\r\n        for (uint i = 0; i < deposits[msg.sender].length; i++) {\r\n            for (uint z = 0; z < rewards.length; z++) {\r\n                if(deposits[msg.sender][i].time < rewards[z].time){\r\n                    amount += (deposits[msg.sender][i].value * rewards[z].value) / rewards[z].totalPooled;\r\n                }\r\n            }\r\n        }\r\n        contractBalance -= amount;\r\n        poolBalance -= balanceOf[msg.sender];\r\n        balanceOf[msg.sender] = 0;\r\n        delete deposits[msg.sender];\r\n        (bool sent, ) = msg.sender.call{value: amount}(\"\");\r\n        require(sent, \"Failed to send Ether\");\r\n        emit Withdrawal(msg.sender, amount);        \r\n    }\r\n\r\n    function getTeam() external view returns(Member[] memory) {\r\n        return team;\r\n    }\r\n\r\n    function addToTeam(address _member) public {\r\n        grantRole(TEAM, _member);\r\n        Member memory newMember = Member(_member, TEAM);\r\n        team.push(newMember);\r\n    }\r\n\r\n    function removeFromTeam(address _member, uint index) public {\r\n        require(index < team.length);\r\n        revokeRole(TEAM, _member);\r\n        team[index] = team[team.length-1];\r\n        team.pop();\r\n    }\r\n}",
  "sourcePath": "C:\\Users\\vinic\\Documents\\blockchain\\exactlyfi\\contracts\\Pool.sol",
  "compiler": {
    "name": "solc",
    "version": "0.8.13+commit.abaa5c0e.Emscripten.clang"
  },
  "schemaVersion": "3.4.3",
  "updatedAt": "2022-03-27T19:24:37.264Z",
  "networkType": "ethereum",
  "devdoc": {
    "kind": "dev",
    "methods": {
      "getRoleAdmin(bytes32)": {
        "details": "Returns the admin role that controls `role`. See {grantRole} and {revokeRole}. To change a role's admin, use {_setRoleAdmin}."
      },
      "grantRole(bytes32,address)": {
        "details": "Grants `role` to `account`. If `account` had not been already granted `role`, emits a {RoleGranted} event. Requirements: - the caller must have ``role``'s admin role."
      },
      "hasRole(bytes32,address)": {
        "details": "Returns `true` if `account` has been granted `role`."
      },
      "renounceRole(bytes32,address)": {
        "details": "Revokes `role` from the calling account. Roles are often managed via {grantRole} and {revokeRole}: this function's purpose is to provide a mechanism for accounts to lose their privileges if they are compromised (such as when a trusted device is misplaced). If the calling account had been revoked `role`, emits a {RoleRevoked} event. Requirements: - the caller must be `account`."
      },
      "revokeRole(bytes32,address)": {
        "details": "Revokes `role` from `account`. If `account` had been granted `role`, emits a {RoleRevoked} event. Requirements: - the caller must have ``role``'s admin role."
      },
      "supportsInterface(bytes4)": {
        "details": "See {IERC165-supportsInterface}."
      }
    },
    "version": 1
  },
  "userdoc": {
    "kind": "user",
    "methods": {},
    "version": 1
  }
}